{
  "contractName": "CourseMarketPlace",
  "abi": [
    {
      "inputs": [],
      "stateMutability": "nonpayable",
      "type": "constructor"
    },
    {
      "inputs": [],
      "name": "CourseHasOwner",
      "type": "error"
    },
    {
      "inputs": [],
      "name": "CourseIsNotCreated",
      "type": "error"
    },
    {
      "inputs": [],
      "name": "InvalidState",
      "type": "error"
    },
    {
      "inputs": [],
      "name": "OnlyOwner",
      "type": "error"
    },
    {
      "inputs": [],
      "name": "SenderIsNotCourseOwner",
      "type": "error"
    },
    {
      "inputs": [],
      "name": "isStopped",
      "outputs": [
        {
          "internalType": "bool",
          "name": "",
          "type": "bool"
        }
      ],
      "stateMutability": "view",
      "type": "function",
      "constant": true
    },
    {
      "stateMutability": "payable",
      "type": "receive",
      "payable": true
    },
    {
      "inputs": [],
      "name": "stopContract",
      "outputs": [],
      "stateMutability": "nonpayable",
      "type": "function"
    },
    {
      "inputs": [],
      "name": "resumeContract",
      "outputs": [],
      "stateMutability": "nonpayable",
      "type": "function"
    },
    {
      "inputs": [
        {
          "internalType": "uint256",
          "name": "amount",
          "type": "uint256"
        }
      ],
      "name": "withdraw",
      "outputs": [],
      "stateMutability": "nonpayable",
      "type": "function"
    },
    {
      "inputs": [],
      "name": "emergencyWithdraw",
      "outputs": [],
      "stateMutability": "nonpayable",
      "type": "function"
    },
    {
      "inputs": [
        {
          "internalType": "address payable",
          "name": "_recipient",
          "type": "address"
        },
        {
          "internalType": "uint256",
          "name": "_amount",
          "type": "uint256"
        }
      ],
      "name": "transferFunds",
      "outputs": [],
      "stateMutability": "nonpayable",
      "type": "function"
    },
    {
      "inputs": [
        {
          "internalType": "bytes16",
          "name": "courseId",
          "type": "bytes16"
        },
        {
          "internalType": "bytes32",
          "name": "proof",
          "type": "bytes32"
        }
      ],
      "name": "purchaseCourse",
      "outputs": [],
      "stateMutability": "payable",
      "type": "function",
      "payable": true
    },
    {
      "inputs": [
        {
          "internalType": "bytes32",
          "name": "courseHash",
          "type": "bytes32"
        }
      ],
      "name": "repurchaseCourse",
      "outputs": [],
      "stateMutability": "payable",
      "type": "function",
      "payable": true
    },
    {
      "inputs": [
        {
          "internalType": "bytes32",
          "name": "courseHash",
          "type": "bytes32"
        }
      ],
      "name": "activateCourse",
      "outputs": [],
      "stateMutability": "nonpayable",
      "type": "function"
    },
    {
      "inputs": [
        {
          "internalType": "bytes32",
          "name": "courseHash",
          "type": "bytes32"
        }
      ],
      "name": "deactivateCourse",
      "outputs": [],
      "stateMutability": "nonpayable",
      "type": "function"
    },
    {
      "inputs": [
        {
          "internalType": "address",
          "name": "newOwner",
          "type": "address"
        }
      ],
      "name": "transferOwnership",
      "outputs": [],
      "stateMutability": "nonpayable",
      "type": "function"
    },
    {
      "inputs": [],
      "name": "getCourseCount",
      "outputs": [
        {
          "internalType": "uint256",
          "name": "",
          "type": "uint256"
        }
      ],
      "stateMutability": "view",
      "type": "function",
      "constant": true
    },
    {
      "inputs": [
        {
          "internalType": "uint256",
          "name": "index",
          "type": "uint256"
        }
      ],
      "name": "getCourseHashAtIndex",
      "outputs": [
        {
          "internalType": "bytes32",
          "name": "",
          "type": "bytes32"
        }
      ],
      "stateMutability": "view",
      "type": "function",
      "constant": true
    },
    {
      "inputs": [
        {
          "internalType": "bytes32",
          "name": "courseHash",
          "type": "bytes32"
        }
      ],
      "name": "getCourseByHash",
      "outputs": [
        {
          "components": [
            {
              "internalType": "uint256",
              "name": "id",
              "type": "uint256"
            },
            {
              "internalType": "uint256",
              "name": "price",
              "type": "uint256"
            },
            {
              "internalType": "bytes32",
              "name": "proof",
              "type": "bytes32"
            },
            {
              "internalType": "address",
              "name": "owner",
              "type": "address"
            },
            {
              "internalType": "enum CourseMarketPlace.State",
              "name": "state",
              "type": "uint8"
            }
          ],
          "internalType": "struct CourseMarketPlace.Course",
          "name": "",
          "type": "tuple"
        }
      ],
      "stateMutability": "view",
      "type": "function",
      "constant": true
    },
    {
      "inputs": [],
      "name": "getContractOwner",
      "outputs": [
        {
          "internalType": "address",
          "name": "",
          "type": "address"
        }
      ],
      "stateMutability": "view",
      "type": "function",
      "constant": true
    }
  ],
  "bytecode": "0x608060405260008060006101000a81548160ff02191690831515021790555034801561002a57600080fd5b5061003a3361003f60201b60201c565b610083565b80600460006101000a81548173ffffffffffffffffffffffffffffffffffffffff021916908373ffffffffffffffffffffffffffffffffffffffff16021790555050565b6118cf806100926000396000f3fe6080604052600436106100ec5760003560e01c80636d11290b1161008a578063c4bc5da511610059578063c4bc5da5146102ca578063d76821cb146102e1578063db2e21bc146102fd578063f2fde38b14610314576100f3565b80636d11290b14610210578063935d7e6d1461024d57806396cfda0614610276578063990dc9db146102a1576100f3565b80633f683b6a116100c65780633f683b6a14610161578063442890d51461018c5780636136e1eb146101b757806362e4e6ac146101d3576100f3565b806312253a6c146100f85780632e1a7d4d1461010f5780633926257214610138576100f3565b366100f357005b600080fd5b34801561010457600080fd5b5061010d61033d565b005b34801561011b57600080fd5b50610136600480360381019061013191906111e6565b6103c5565b005b34801561014457600080fd5b5061015f600480360381019061015a9190611249565b610503565b005b34801561016d57600080fd5b5061017661067d565b6040516101839190611291565b60405180910390f35b34801561019857600080fd5b506101a161068e565b6040516101ae91906112ed565b60405180910390f35b6101d160048036038101906101cc9190611249565b6106b8565b005b3480156101df57600080fd5b506101fa60048036038101906101f59190611249565b61080d565b6040516102079190611414565b60405180910390f35b34801561021c57600080fd5b50610237600480360381019061023291906111e6565b6108e9565b604051610244919061143e565b60405180910390f35b34801561025957600080fd5b50610274600480360381019061026f9190611249565b610906565b005b34801561028257600080fd5b5061028b610b5f565b6040516102989190611468565b60405180910390f35b3480156102ad57600080fd5b506102c860048036038101906102c391906114c1565b610b69565b005b3480156102d657600080fd5b506102df610c23565b005b6102fb60048036038101906102f69190611559565b610cab565b005b34801561030957600080fd5b50610312610e64565b005b34801561032057600080fd5b5061033b600480360381019061033691906115c5565b610fb8565b005b61034561068e565b73ffffffffffffffffffffffffffffffffffffffff163373ffffffffffffffffffffffffffffffffffffffff16146103a9576040517f5fc483c500000000000000000000000000000000000000000000000000000000815260040160405180910390fd5b60016000806101000a81548160ff021916908315150217905550565b6103cd61068e565b73ffffffffffffffffffffffffffffffffffffffff163373ffffffffffffffffffffffffffffffffffffffff1614610431576040517f5fc483c500000000000000000000000000000000000000000000000000000000815260040160405180910390fd5b6000600460009054906101000a900473ffffffffffffffffffffffffffffffffffffffff1673ffffffffffffffffffffffffffffffffffffffff168260405161047990611623565b60006040518083038185875af1925050503d80600081146104b6576040519150601f19603f3d011682016040523d82523d6000602084013e6104bb565b606091505b50509050806104ff576040517f08c379a00000000000000000000000000000000000000000000000000000000081526004016104f690611695565b60405180910390fd5b5050565b61050b61068e565b73ffffffffffffffffffffffffffffffffffffffff163373ffffffffffffffffffffffffffffffffffffffff161461056f576040517f5fc483c500000000000000000000000000000000000000000000000000000000815260040160405180910390fd5b60008054906101000a900460ff161561058757600080fd5b61059081611030565b6105c6576040517f4db0c48300000000000000000000000000000000000000000000000000000000815260040160405180910390fd5b6000600160008381526020019081526020016000209050600060028111156105f1576105f0611335565b5b8160030160149054906101000a900460ff16600281111561061557610614611335565b5b1461064c576040517fbaf3f0f700000000000000000000000000000000000000000000000000000000815260040160405180910390fd5b60018160030160146101000a81548160ff0219169083600281111561067457610673611335565b5b02179055505050565b60008054906101000a900460ff1681565b6000600460009054906101000a900473ffffffffffffffffffffffffffffffffffffffff16905090565b60008054906101000a900460ff16156106d057600080fd5b6106d981611030565b61070f576040517f4db0c48300000000000000000000000000000000000000000000000000000000815260040160405180910390fd5b6107188161109f565b61074e576040517fcce31cc400000000000000000000000000000000000000000000000000000000815260040160405180910390fd5b600060016000838152602001908152602001600020905060028081111561077857610777611335565b5b8160030160149054906101000a900460ff16600281111561079c5761079b611335565b5b146107d3576040517fbaf3f0f700000000000000000000000000000000000000000000000000000000815260040160405180910390fd5b60008160030160146101000a81548160ff021916908360028111156107fb576107fa611335565b5b02179055503481600101819055505050565b610815611151565b600160008381526020019081526020016000206040518060a00160405290816000820154815260200160018201548152602001600282015481526020016003820160009054906101000a900473ffffffffffffffffffffffffffffffffffffffff1673ffffffffffffffffffffffffffffffffffffffff1673ffffffffffffffffffffffffffffffffffffffff1681526020016003820160149054906101000a900460ff1660028111156108cc576108cb611335565b5b60028111156108de576108dd611335565b5b815250509050919050565b600060026000838152602001908152602001600020549050919050565b61090e61068e565b73ffffffffffffffffffffffffffffffffffffffff163373ffffffffffffffffffffffffffffffffffffffff1614610972576040517f5fc483c500000000000000000000000000000000000000000000000000000000815260040160405180910390fd5b60008054906101000a900460ff161561098a57600080fd5b61099381611030565b6109c9576040517f4db0c48300000000000000000000000000000000000000000000000000000000815260040160405180910390fd5b6000600160008381526020019081526020016000209050600060028111156109f4576109f3611335565b5b8160030160149054906101000a900460ff166002811115610a1857610a17611335565b5b14610a4f576040517fbaf3f0f700000000000000000000000000000000000000000000000000000000815260040160405180910390fd5b60008160030160009054906101000a900473ffffffffffffffffffffffffffffffffffffffff1673ffffffffffffffffffffffffffffffffffffffff168260010154604051610a9d90611623565b60006040518083038185875af1925050503d8060008114610ada576040519150601f19603f3d011682016040523d82523d6000602084013e610adf565b606091505b5050905080610b23576040517f08c379a0000000000000000000000000000000000000000000000000000000008152600401610b1a90611701565b60405180910390fd5b60028260030160146101000a81548160ff02191690836002811115610b4b57610b4a611335565b5b021790555060008260010181905550505050565b6000600354905090565b600073ffffffffffffffffffffffffffffffffffffffff168273ffffffffffffffffffffffffffffffffffffffff1603610bd8576040517f08c379a0000000000000000000000000000000000000000000000000000000008152600401610bcf9061176d565b60405180910390fd5b8173ffffffffffffffffffffffffffffffffffffffff166108fc829081150290604051600060405180830381858888f19350505050158015610c1e573d6000803e3d6000fd5b505050565b610c2b61068e565b73ffffffffffffffffffffffffffffffffffffffff163373ffffffffffffffffffffffffffffffffffffffff1614610c8f576040517f5fc483c500000000000000000000000000000000000000000000000000000000815260040160405180910390fd5b60008060006101000a81548160ff021916908315150217905550565b60008054906101000a900460ff1615610cc357600080fd5b60008233604051602001610cd89291906117f6565b604051602081830303815290604052805190602001209050610cf98161109f565b15610d30576040517fb0fc2d9700000000000000000000000000000000000000000000000000000000815260040160405180910390fd5b600060036000815480929190610d4590611851565b9190505590508160026000838152602001908152602001600020819055506040518060a001604052808281526020013481526020018481526020013373ffffffffffffffffffffffffffffffffffffffff16815260200160006002811115610db057610daf611335565b5b8152506001600084815260200190815260200160002060008201518160000155602082015181600101556040820151816002015560608201518160030160006101000a81548173ffffffffffffffffffffffffffffffffffffffff021916908373ffffffffffffffffffffffffffffffffffffffff16021790555060808201518160030160146101000a81548160ff02191690836002811115610e5657610e55611335565b5b021790555090505050505050565b60008054906101000a900460ff16610e7b57600080fd5b610e8361068e565b73ffffffffffffffffffffffffffffffffffffffff163373ffffffffffffffffffffffffffffffffffffffff1614610ee7576040517f5fc483c500000000000000000000000000000000000000000000000000000000815260040160405180910390fd5b6000600460009054906101000a900473ffffffffffffffffffffffffffffffffffffffff1673ffffffffffffffffffffffffffffffffffffffff1647604051610f2f90611623565b60006040518083038185875af1925050503d8060008114610f6c576040519150601f19603f3d011682016040523d82523d6000602084013e610f71565b606091505b5050905080610fb5576040517f08c379a0000000000000000000000000000000000000000000000000000000008152600401610fac90611695565b60405180910390fd5b50565b610fc061068e565b73ffffffffffffffffffffffffffffffffffffffff163373ffffffffffffffffffffffffffffffffffffffff1614611024576040517f5fc483c500000000000000000000000000000000000000000000000000000000815260040160405180910390fd5b61102d8161110d565b50565b60008073ffffffffffffffffffffffffffffffffffffffff166001600084815260200190815260200160002060030160009054906101000a900473ffffffffffffffffffffffffffffffffffffffff1673ffffffffffffffffffffffffffffffffffffffff1614159050919050565b60003373ffffffffffffffffffffffffffffffffffffffff166001600084815260200190815260200160002060030160009054906101000a900473ffffffffffffffffffffffffffffffffffffffff1673ffffffffffffffffffffffffffffffffffffffff16149050919050565b80600460006101000a81548173ffffffffffffffffffffffffffffffffffffffff021916908373ffffffffffffffffffffffffffffffffffffffff16021790555050565b6040518060a00160405280600081526020016000815260200160008019168152602001600073ffffffffffffffffffffffffffffffffffffffff168152602001600060028111156111a5576111a4611335565b5b81525090565b600080fd5b6000819050919050565b6111c3816111b0565b81146111ce57600080fd5b50565b6000813590506111e0816111ba565b92915050565b6000602082840312156111fc576111fb6111ab565b5b600061120a848285016111d1565b91505092915050565b6000819050919050565b61122681611213565b811461123157600080fd5b50565b6000813590506112438161121d565b92915050565b60006020828403121561125f5761125e6111ab565b5b600061126d84828501611234565b91505092915050565b60008115159050919050565b61128b81611276565b82525050565b60006020820190506112a66000830184611282565b92915050565b600073ffffffffffffffffffffffffffffffffffffffff82169050919050565b60006112d7826112ac565b9050919050565b6112e7816112cc565b82525050565b600060208201905061130260008301846112de565b92915050565b611311816111b0565b82525050565b61132081611213565b82525050565b61132f816112cc565b82525050565b7f4e487b7100000000000000000000000000000000000000000000000000000000600052602160045260246000fd5b6003811061137557611374611335565b5b50565b600081905061138682611364565b919050565b600061139682611378565b9050919050565b6113a68161138b565b82525050565b60a0820160008201516113c26000850182611308565b5060208201516113d56020850182611308565b5060408201516113e86040850182611317565b5060608201516113fb6060850182611326565b50608082015161140e608085018261139d565b50505050565b600060a08201905061142960008301846113ac565b92915050565b61143881611213565b82525050565b6000602082019050611453600083018461142f565b92915050565b611462816111b0565b82525050565b600060208201905061147d6000830184611459565b92915050565b600061148e826112ac565b9050919050565b61149e81611483565b81146114a957600080fd5b50565b6000813590506114bb81611495565b92915050565b600080604083850312156114d8576114d76111ab565b5b60006114e6858286016114ac565b92505060206114f7858286016111d1565b9150509250929050565b60007fffffffffffffffffffffffffffffffff0000000000000000000000000000000082169050919050565b61153681611501565b811461154157600080fd5b50565b6000813590506115538161152d565b92915050565b600080604083850312156115705761156f6111ab565b5b600061157e85828601611544565b925050602061158f85828601611234565b9150509250929050565b6115a2816112cc565b81146115ad57600080fd5b50565b6000813590506115bf81611599565b92915050565b6000602082840312156115db576115da6111ab565b5b60006115e9848285016115b0565b91505092915050565b600081905092915050565b50565b600061160d6000836115f2565b9150611618826115fd565b600082019050919050565b600061162e82611600565b9150819050919050565b600082825260208201905092915050565b7f5472616e73666572206661696c65642e00000000000000000000000000000000600082015250565b600061167f601083611638565b915061168a82611649565b602082019050919050565b600060208201905081810360008301526116ae81611672565b9050919050565b7f5472616e73666572204661696c65642100000000000000000000000000000000600082015250565b60006116eb601083611638565b91506116f6826116b5565b602082019050919050565b6000602082019050818103600083015261171a816116de565b9050919050565b7f496e76616c696420726563697069656e74206164647265737300000000000000600082015250565b6000611757601983611638565b915061176282611721565b602082019050919050565b600060208201905081810360008301526117868161174a565b9050919050565b6000819050919050565b6117a86117a382611501565b61178d565b82525050565b60008160601b9050919050565b60006117c6826117ae565b9050919050565b60006117d8826117bb565b9050919050565b6117f06117eb826112cc565b6117cd565b82525050565b60006118028285611797565b60108201915061181282846117df565b6014820191508190509392505050565b7f4e487b7100000000000000000000000000000000000000000000000000000000600052601160045260246000fd5b600061185c826111b0565b91507fffffffffffffffffffffffffffffffffffffffffffffffffffffffffffffffff820361188e5761188d611822565b5b60018201905091905056fea26469706673582212202fb230e586a6b87dd55bc9957a9623095cda0b8481ae5c5fba70a486ce8c0dc964736f6c63430008110033",
  "immutableReferences": {},
  "source": "// SPDX-License-Identifier: MIT\npragma solidity >=0.4.22 <0.9.0;\n\n// Create our CourseMarketplace contract\ncontract CourseMarketPlace {\n    // Enums are user-defined data types that restrict the variable to have only one of the predifined vales.\n    enum State {\n        Purchased,\n        Activated,\n        Deactivated\n    }\n\n    // Structs are similar to JS Objects. They essentially allow you to create more complicated data types that have multiple properties.\n    struct Course {\n        uint256 id;\n        uint256 price;\n        // The proof is unique to the user. The proof will be sent in the purchase request. The proof will identify the user without revealing the user identity.\n        bytes32 proof;\n        address owner;\n        State state;\n        // Each of these are slots in storage. All are 32 bits, except address is 20, and State is 1, so they will share a slot.\n    }\n\n    bool public isStopped = false;\n\n    //Mappings are hash tables that store data as key-value pairs.\n    // Below is a mapping of a course-hash to an individual course\n    mapping(bytes32 => Course) private ownedCourses;\n    // Below is a mapping of the courseId and courseHash\n    mapping(uint256 => bytes32) private ownedCourseHash;\n\n    // number of all courses owned, and the id of each course\n    uint256 private totalOwnedCourses;\n\n    //Makes it so that owner address can receive ether\n    address payable private owner;\n\n    //Establishes ownership of the contract upon deployment.\n    constructor() {\n        setContractOwner(msg.sender);\n    }\n\n    // Note: the comment below will actually be sent along with the error message.\n    /// Course already been purchased\n    error CourseHasOwner();\n\n    ///Only owner has access to this function\n    error OnlyOwner();\n\n    /// Course Has Not Been Created\n    error CourseIsNotCreated();\n\n    /// Course Has Invalid State\n    error InvalidState();\n\n    /// Repurchase Denied, Sender is Not Course Owner\n    error SenderIsNotCourseOwner();\n\n    modifier onlyOwner() {\n        if (msg.sender != getContractOwner()) {\n            revert OnlyOwner();\n        }\n        _;\n    }\n\n    modifier onlyWhenNotStopped() {\n        require(!isStopped);\n        _;\n    }\n\n    modifier onlyWhenStopped() {\n        require(isStopped);\n        _;\n    }\n\n    // This file follows the style guide for how to place your functions within a contract.\n    // This function allows us to store courses that users have purchased.\n\n    function stopContract() external onlyOwner {\n        isStopped = true;\n    }\n\n    function resumeContract() external onlyOwner {\n        isStopped = false;\n    }\n\n    // Allows Our Contract to Receive Ether\n    receive() external payable {}\n\n    function withdraw(uint256 amount) external onlyOwner {\n        (bool success, ) = owner.call{value: amount}(\"\");\n        require(success, \"Transfer failed.\");\n    }\n\n    function emergencyWithdraw() external onlyWhenStopped onlyOwner {\n        (bool success, ) = owner.call{value: address(this).balance}(\"\");\n        require(success, \"Transfer failed.\");\n    }\n\n    function transferFunds(address payable _recipient, uint256 _amount) public {\n        require(_recipient != address(0), \"Invalid recipient address\");\n        _recipient.transfer(_amount);\n    }\n\n    function purchaseCourse(bytes16 courseId, bytes32 proof)\n        external\n        payable\n        onlyWhenNotStopped\n    {\n        // Create the course hash\n        bytes32 courseHash = keccak256(abi.encodePacked(courseId, msg.sender));\n        // Checks to see if the user has already purchsed the course\n        if (courseIsOwned(courseHash)) {\n            revert CourseHasOwner();\n        }\n        // Increment the total owned courses, as well as create the course id.\n        uint256 id = totalOwnedCourses++;\n        // In our mapping at the index of \"id\", we will store the course hash\n        ownedCourseHash[id] = courseHash;\n        //In the mapping of owned courses, we will use the courseHash as the key to access the course we just purchased, the following course data.\n        ownedCourses[courseHash] = Course({\n            id: id,\n            price: msg.value,\n            proof: proof,\n            owner: msg.sender,\n            state: State.Purchased\n        });\n    }\n\n    function repurchaseCourse(bytes32 courseHash)\n        external\n        payable\n        onlyWhenNotStopped\n    {\n        if (!isCourseCreated(courseHash)) {\n            revert CourseIsNotCreated();\n        }\n\n        if (!courseIsOwned(courseHash)) {\n            revert SenderIsNotCourseOwner();\n        }\n\n        Course storage course = ownedCourses[courseHash];\n\n        if (course.state != State.Deactivated) {\n            revert InvalidState();\n        }\n\n        course.state = State.Purchased;\n        course.price = msg.value;\n    }\n\n    // We are looking for a coure hash being sent from teh contract owner. If that is false, the first error will trigger. Then, we will access this course in the storage because we are retrieving information we plan to alter. This will update on the blockchain.\n    function activateCourse(bytes32 courseHash)\n        external\n        onlyOwner\n        onlyWhenNotStopped\n    {\n        if (!isCourseCreated(courseHash)) {\n            revert CourseIsNotCreated();\n        }\n\n        Course storage course = ownedCourses[courseHash];\n\n        if (course.state != State.Purchased) {\n            revert InvalidState();\n        }\n\n        course.state = State.Activated;\n    }\n\n    function deactivateCourse(bytes32 courseHash)\n        external\n        onlyOwner\n        onlyWhenNotStopped\n    {\n        if (!isCourseCreated(courseHash)) {\n            revert CourseIsNotCreated();\n        }\n\n        Course storage course = ownedCourses[courseHash];\n\n        if (course.state != State.Purchased) {\n            revert InvalidState();\n        }\n\n        (bool success, ) = course.owner.call{value: course.price}(\"\");\n        require(success, \"Transfer Failed!\");\n\n        course.state = State.Deactivated;\n        course.price = 0;\n    }\n\n    function transferOwnership(address newOwner) external onlyOwner {\n        setContractOwner(newOwner);\n    }\n\n    function getCourseCount() external view returns (uint256) {\n        return totalOwnedCourses;\n    }\n\n    function getCourseHashAtIndex(uint256 index)\n        external\n        view\n        returns (bytes32)\n    {\n        return ownedCourseHash[index];\n    }\n\n    // Quick Note regarding returns(Course memory), the Struct that is returned by this function must be declared as bing stored in memory because they exist only inside the calling function.\n    function getCourseByHash(bytes32 courseHash)\n        external\n        view\n        returns (Course memory)\n    {\n        return ownedCourses[courseHash];\n    }\n\n    function getContractOwner() public view returns (address) {\n        return owner;\n    }\n\n    function setContractOwner(address newOwner) private {\n        owner = payable(newOwner);\n    }\n\n    function isCourseCreated(bytes32 courseHash) private view returns (bool) {\n        return\n            ownedCourses[courseHash].owner !=\n            0x0000000000000000000000000000000000000000;\n    }\n\n    // Helper function for our purchaseCourse function that will stop that function if the course has already been purchased.\n    function courseIsOwned(bytes32 courseHash) private view returns (bool) {\n        //uses the address of the owner extracted from the courseHash and compares it with the address of the sender of the function.\n        return ownedCourses[courseHash].owner == msg.sender;\n    }\n}\n",
  "sourcePath": "/Users/matthewbernhardt/Desktop/ethMarketplace/eth3app/contracts/CourseMarketplace.sol",
  "compiler": {
    "name": "solc",
    "version": "0.8.17+commit.8df45f5f.Emscripten.clang"
  },
  "schemaVersion": "3.4.10",
  "updatedAt": "2023-03-03T17:44:55.210Z",
  "networkType": "ethereum",
  "devdoc": {
    "kind": "dev",
    "methods": {},
    "version": 1
  },
  "userdoc": {
    "errors": {
      "CourseHasOwner()": [
        {
          "notice": "Course already been purchased"
        }
      ],
      "CourseIsNotCreated()": [
        {
          "notice": "Course Has Not Been Created"
        }
      ],
      "InvalidState()": [
        {
          "notice": "Course Has Invalid State"
        }
      ],
      "OnlyOwner()": [
        {
          "notice": "Only owner has access to this function"
        }
      ],
      "SenderIsNotCourseOwner()": [
        {
          "notice": "Repurchase Denied, Sender is Not Course Owner"
        }
      ]
    },
    "kind": "user",
    "methods": {},
    "version": 1
  }
}